:020000020000FC
:1000000094E09EBF9FE59DBFF0E0E6E90FEF07BBE0
:100010003324F0E0E6E905910030D9F301D0FBCFBD
:10002000003221F008D012D02BD004C0BCE828D078
:10003000BCE826D00895FF93EF93F0E0E0EA015486
:10004000E00FF31D0491EF91FF91089503D0BCE8F8
:1000500017D0089501D00895000F21F004D0B6E420
:100060000FD0FACF089510F0B6E401C0B2ED04D07D
:1000700008950197F1F70895C09A06D0E9F7089519
:10008000C09802D0E9F7089584E6F3DFC09884E6CB
:10009000F0DFBA950895534F532053414142200059
:1000A0006088A8904028D0082078B048E0A0F06888
:0C00B000D85010C030187098B8C800007C
:00000001FF
