:020000020000FC
:1000000094E09EBF9FE59DBFF0E0E4ED0FEF07BBDE
:100010001127772733243096F0E0E4ED06D0403006
:10002000D9F3FCCF0591402F0895FCDF02D045D0D5
:100030000895003209F006D010D0ACE82ED02DD0B3
:100040002CD00895FF93EF93F0E0EEED0154E00F14
:10005000F31D1491EF91FF910895912F03D008950E
:10006000110F089501D0089504D027D01038E1F77A
:100070000895003231F0110F10F0B8E20AC0B8E76D
:1000800008C0ACE80AD009D0A6E407D010E8A6E47E
:1000900002C00AD0A6E401D008958FE18A95F1F755
:1000A000AA95D9F7ACE80895C09AAAE0F6DFC098FF
:1000B000AAE0F3DFBA95C1F70895ACE8EEDFEDDF13
:1000C000ECDFEBDFEADFE9DFE8DFE7DFE6DFE5DFF4
:1000D000E4DF0895534F53205341414200006088AC
:1000E000A8904028D0082078B048E0A0F068D85008
:0A00F00010C030187098B8C8000066
:00000001FF
