:020000020000FC
:1000000094E09EBF9FE59DBFF0E0E4EA0FEF07BBE1
:100010009927882733243096F0E0E4EA0591402FB1
:100020000030D1F301D0FACF003221F007D011D047
:1000300035D0089580E09CE825D0FBCFFF93EF9367
:10004000F0E0EEEA0154E00FF31D1491EF91FF91FF
:10005000089504D080E096E415D00895D12F01D002
:10006000089501D00895110F19F003D017D0FBCFD8
:10007000089510F0B6E401C0B2ED07D080E096E438
:1000800001D008950197F1F70895C09A88E7FADF43
:10009000C09888E7F7DFBA95C1F7089580E092ED40
:1000A000F1DF0895534F53205341414200006088CF
:1000B000A8904028D0082078B048E0A0F068D85038
:0A00C00010C030187098B8C8000096
:00000001FF
