:020000020000FC
:1000000094E09EBF9FE59DBFF1E0E4E00FEF07BBEA
:1000100040E050E011277727309604D00BD04427DA
:100020005527FBCF04913196003009F00895F1E097
:10003000E4E0F3CF05D04427552753D0F3DFFACFC0
:1000400008D01DD0A8E73ED0A8E73CD0A8E73AD01A
:100050000895FF93EF93F1E0EEE02491021719F079
:1000600031964395FACFF1E0EAE24517649119F031
:1000700031965395FACF1491EF91FF910895912FF6
:1000800003D00895110F089501D0089504D029D008
:100090001038E1F70895913019F0110F70F048F41D
:1000A000A8E710D0A8E70ED0ACE30CD010E8ACE382
:1000B00007C0B8E20DD0ACE303C0B8E709D0ACE3A9
:1000C00001D008958FE18A95F1F7AA95D9F708959F
:1000D000C09AAAE0F7DFC098AAE0F4DFBA95C1F7AA
:1000E0000895A8E7EFDFA8E7EDDFA8E7EBDFA8E7D3
:1000F000E9DFA8E7E7DFA8E7E5DFA8E7E3DFA8E7B0
:10010000E1DF0895534F5320534141420000204105
:1001100042434445464748494A4B4C4D4E4F505147
:1001200052535455565758595A00016088A8904068
:1001300028D0082078B048E0A0F068D85010C0302F
:06014000187098B8C80019
:00000001FF
