:020000020000FC
:1000000094E09EBF9FE59DBFF0E0E6E701E007BBFF
:1000100040E050E0112730960E9413000E941A0021
:1000200043950C940C0004913196003009F008952A
:10003000F0E0E6E70E9420000E9413000C941A00F2
:100040000E9423000895FF93EF93F0E0EAE72491E4
:10005000021721F0319643950C942700F0E0E6E971
:100060004517649121F0319653950C94300014910A
:10007000EF91FF910895534F530041424344454649
:100080004748494A4B4C4D4E4F5051525354555688
:100090005758595A00006088A8904028D008207806
:1000A000B048E0A0F068D85010C030187098B8C8B8
:0200B00000004E
:00000001FF
