:020000020000FC
:1000000094E09EBF9FE59DBFF1E0E6E00FEF07BBE8
:1000100040E050E01127772730960E9415000E949B
:100020001E00442755270C940D0004913196003092
:1000300009F00895F1E0E6E00C940D000E9426001E
:10004000442755270E9415000C941E000E942E0084
:100050000E944600A0E50E946F000895FF93EF9371
:10006000F1E0EAE02491021721F0319643950C94D7
:100070003200F1E0E6E24517649121F031965395A4
:100080000C943B001491EF91FF910895912F0E94E1
:100090004C000E944E000895110F08950E945100D7
:1000A00008950E945D00A8E20E946F000E944C002B
:1000B000103011F00C9451000895913069F030F037
:1000C000BAE00E947800AAE00C946A00BEE10E94A7
:1000D0007800AEE1C0980895AFEF0C946A000E94DA
:1000E000720008958FE18A95F1F7AA95D9F70895DE
:1000F000CFE1C09AAAE00E947200C098CA95F1F7B9
:10010000BA95B1F70895534F5300204142434445F7
:10011000464748494A4B4C4D4E4F50515253545507
:10012000565758595A00016088A8904028D0082096
:1001300078B048E0A0F068D85010C030187098B877
:02014000C800F5
:00000001FF
