:020000020000FC
:1000000094E09EBF9FE59DBFF0E0E4EE0FEF07BBDD
:1000100040E050E01127772730960E9415000E949B
:100020001E00442755270C940D0004913196003092
:1000300009F00895F0E0E4EE0C940D000E94240015
:100040000E9415000C941E000E9429000E9441008D
:100050000895FF93EF93F0E0E8EE2491021721F06A
:10006000319643950C942D00F1E0E4E0451764913E
:1000700021F0319653950C9436001491EF91FF9135
:100080000895912F0E9447000E9449000895110F82
:1000900008950E944C0008950E9457000E94680035
:1000A0000E944700103011F00C944C0008959130DC
:1000B00061F008F028F4C09A0E946B00C09808957F
:1000C000C09A0E946B00C09808950E946B0008952A
:1000D0000E946B0008957FEF8FE08A95F1F77A9583
:1000E000D9F70895534F53002041424344454647B2
:1000F00048494A4B4C4D4E4F505152535455565708
:1001000058595A00016088A8904028D0082078B03B
:1001100048E0A0F068D85010C030187098B8C800F7
:00000001FF
