:020000020000FC
:0200000012C02C
:0200200039C0E5
:1000240056C004E00EBF0FE50DBF0FEF07BB0FEF87
:100034000ABB0BE10EBD02E00FBD08E01DE317BDD6
:1000440006BD05E009BF09E403BF332411273327A4
:100054001093000110930101109302011093030106
:1000640002D07894FFCFC0E0D1E0089518812AE04F
:1000740005D00895188126E001D00895121711F0D3
:10008400199305C010E019931881139518830895E6
:100094000F934F934FB7CF93DF93E5DF18811395F9
:1000A4001883E4DFE7DFE2DF1881163009F009C0C6
:1000B40010E01093000110930101109302011093BA
:1000C4000301DF91CF914FBF4F910F9118950F937B
:1000D4004F934FB7199111D03395343011F00C94DC
:1000E4007500C1DF33274FBF4F910F911895E6E09C
:1000F400F1E0E10FF31D04910895F9DF3BBB08BB68
:0C01040008953F065B4F666D7D077F6F1E
:00000001FF
