:020000020000FC
:100000000C9404000C94370004E00EBF0FE50DBF04
:100010008827992733240E94C8000E94D1000E949B
:100020009200F8940E94050178940E94AD008FEF31
:1000300090E512D00091610010916300011751F416
:100040000091600010916200011721F4A4E6B1E074
:10005000E9D0A7D00C940F008F939F930F930FB705
:100060000197F1F70FBF0F919F918F9108950F9313
:100070001F932F93CF93DF932FB700916400053028
:1000800009F40027C00FD31D112718BB0BBB188123
:1000900018BB03950093640000916A0003950093D8
:1000A0006A002FBFDF91CF912F911F910F9118956B
:1000B000C5E6D0E0089507B900EC06B93699FECF41
:1000C00005B108950F931F931FB703E0F4DF0030CD
:1000D00031F4009160000A950093600007C003307E
:1000E00029F4009160000395009360001FBF1F91E9
:1000F0000F9108950F931F931FB704E0DCDF0030CA
:1001000031F4009161000A950093610007C003304B
:1001100029F4009161000395009361001FBF1F91B6
:100120000F910895CFDFE6DF0E94970008950091B8
:10013000600017E00E94A60000936000009161003B
:1001400015E00E94A60000936100089500601AF077
:10015000011711F4025003950895F894FF27E0E683
:1001600006D0FF27E2E60E94B70078940895119127
:100170000E94C1001081E5E6E10F1081102B108371
:10018000089501E01A951AF0000F0C94C20008952A
:1001900003E005BF00E40BBF0FEF07BB07E20ABB9C
:1001A0000895F89485DF31D03092640000270093E1
:1001B000600001E0009361000F930F9308D00F914E
:1001C000009362000F9100936300789408950EB736
:1001D000F02F0DB7E02F00916A00077012E0202F7A
:1001E0000AD03396119300916A000770112725E019
:1001F00002D010830895003009F406C01395121739
:1002000011F00A95F8CF1A950895CF93DF9350DF38
:10021000002711270993143011F01395FBCFDF91BC
:10022000CF910895F894DD9A119788EC90E014DF4F
:0E023000DD9888EC90E010DFA9F7789408952F
:00000001FF
