:020000020000FC
:100000000C9404000C941D0004E00EBF0FE50DBF1E
:100010008827992733240E94A7000E94B0000E94DD
:1000200071000E94CA000E948C008FEF9EE102D0F6
:100030000C940F000197F1F708950F931F932F93DE
:10004000CF93DF932FB700916400053009F40027A8
:10005000C00FD31D112718BB0BBB188118BB03950C
:10006000009364002FBFDF91CF912F911F910F91CB
:100070001895C5E6D0E0089507B900EC06B905B1BA
:1000800008950F931F931FB704E0F6DF003031F49B
:10009000009160000A950093600007C0033029F4C6
:1000A000009160000395009360001FBF1F910F91A6
:1000B00008950F931F931FB703E0DEDF003031F484
:1000C000009161000A950093610007C0033029F494
:1000D000009161000395009361001FBF1F910F9174
:1000E0000895CFDFE6DF0E9476000895009160005A
:1000F00017E00E948500009360000091610015E008
:100100000E94850000936100089500601AF00117B5
:1001100011F4025003950895F894FF27E0E606D005
:10012000FF27E2E60E9496007894089511910E94BC
:10013000A0001081E5E6E10F1081102B10830895D7
:1001400001E01A951AF0000F0C94A100089503E045
:1001500005BF00E40BBF0FEF07BB07E00ABB089524
:10016000F89487DF0E94CA003092640009D0789426
:1001700008950EB7F02F0DB7E02F00916A00089593
:10018000DF93CF9376DF0027099301E00883CF91B7
:10019000DF910895F894CF93DF936BDF0027112749
:1001A0000993153011F01395FBCFDF91CF9178941F
:0401B0000895089511
:00000001FF
