:020000020000FC
:100000000C9404000C94190004E00EBF0FE50DBF22
:100010000E9485000E9490000E9439000E94AB005F
:100020000E946C0002D00C940C0006E40A95F1F7D3
:1000300008950F9300916400053021F001170BBB68
:10004000039502C0002706D000936400099108BB05
:100050000F911895C5E6D0E0089503E007B900ECCC
:1000600006B905B1089504E007B900EC06B905B179
:100070000895F3DF00FF009160000A95009360008F
:1000800000FD00916000039500936000ECDF00FF2D
:10009000009161000A950093610000FD00916100EC
:1000A0000395009361000E9456000895009160003E
:1000B00017E00E946500009360000091610015E068
:1000C0000E94650000936100089500601AF0011716
:1000D00011F4025003950895FF27E0E605D0FF27AD
:1000E000E2E60E947400089511910E947E00108142
:1000F000E5E6E10F1081102B1083089501E01A95B9
:100100001AF0000F0C947F00089503E005BF00E48F
:100110000BBF0FEF07BB07E00ABB9CDF7894089585
:100120000CD00E9496000E94AB0008950EB7F02FED
:100130000DB7E02F00916A000895DF93CF938ADF17
:10014000002700936000099301E000936100088399
:10015000CF91DF910895CF93DF930E942A0000276B
:1001600011270993153011F01395FBCFDF91CF9133
:040170000895089551
:00000001FF
